{
  "contractName": "Marketplace",
  "abi": [
    {
      "inputs": [
        {
          "internalType": "address payable",
          "name": "_ownerContract",
          "type": "address"
        }
      ],
      "payable": false,
      "stateMutability": "nonpayable",
      "type": "constructor"
    },
    {
      "anonymous": false,
      "inputs": [
        {
          "indexed": false,
          "internalType": "uint256",
          "name": "id",
          "type": "uint256"
        },
        {
          "indexed": false,
          "internalType": "string",
          "name": "name",
          "type": "string"
        },
        {
          "indexed": false,
          "internalType": "uint256",
          "name": "price",
          "type": "uint256"
        },
        {
          "indexed": false,
          "internalType": "address payable",
          "name": "owner",
          "type": "address"
        },
        {
          "indexed": false,
          "internalType": "bool",
          "name": "purchased",
          "type": "bool"
        },
        {
          "indexed": false,
          "internalType": "bool",
          "name": "sale",
          "type": "bool"
        }
      ],
      "name": "ProductChanged",
      "type": "event"
    },
    {
      "anonymous": false,
      "inputs": [
        {
          "indexed": false,
          "internalType": "uint256",
          "name": "id",
          "type": "uint256"
        },
        {
          "indexed": false,
          "internalType": "string",
          "name": "name",
          "type": "string"
        },
        {
          "indexed": false,
          "internalType": "uint256",
          "name": "price",
          "type": "uint256"
        },
        {
          "indexed": false,
          "internalType": "address payable",
          "name": "owner",
          "type": "address"
        },
        {
          "indexed": false,
          "internalType": "bool",
          "name": "purchased",
          "type": "bool"
        },
        {
          "indexed": false,
          "internalType": "bool",
          "name": "sale",
          "type": "bool"
        }
      ],
      "name": "ProductCreated",
      "type": "event"
    },
    {
      "anonymous": false,
      "inputs": [
        {
          "indexed": false,
          "internalType": "uint256",
          "name": "id",
          "type": "uint256"
        },
        {
          "indexed": false,
          "internalType": "string",
          "name": "name",
          "type": "string"
        },
        {
          "indexed": false,
          "internalType": "uint256",
          "name": "price",
          "type": "uint256"
        },
        {
          "indexed": false,
          "internalType": "address payable",
          "name": "owner",
          "type": "address"
        },
        {
          "indexed": false,
          "internalType": "bool",
          "name": "purchased",
          "type": "bool"
        },
        {
          "indexed": false,
          "internalType": "bool",
          "name": "sale",
          "type": "bool"
        }
      ],
      "name": "ProductForSale",
      "type": "event"
    },
    {
      "anonymous": false,
      "inputs": [
        {
          "indexed": false,
          "internalType": "uint256",
          "name": "id",
          "type": "uint256"
        },
        {
          "indexed": false,
          "internalType": "string",
          "name": "name",
          "type": "string"
        },
        {
          "indexed": false,
          "internalType": "uint256",
          "name": "price",
          "type": "uint256"
        },
        {
          "indexed": false,
          "internalType": "address payable",
          "name": "owner",
          "type": "address"
        },
        {
          "indexed": false,
          "internalType": "bool",
          "name": "purchased",
          "type": "bool"
        },
        {
          "indexed": false,
          "internalType": "bool",
          "name": "sale",
          "type": "bool"
        }
      ],
      "name": "ProductPurchased",
      "type": "event"
    },
    {
      "constant": true,
      "inputs": [],
      "name": "name",
      "outputs": [
        {
          "internalType": "string",
          "name": "",
          "type": "string"
        }
      ],
      "payable": false,
      "stateMutability": "view",
      "type": "function"
    },
    {
      "constant": true,
      "inputs": [],
      "name": "productCount",
      "outputs": [
        {
          "internalType": "uint256",
          "name": "",
          "type": "uint256"
        }
      ],
      "payable": false,
      "stateMutability": "view",
      "type": "function"
    },
    {
      "constant": true,
      "inputs": [
        {
          "internalType": "uint256",
          "name": "",
          "type": "uint256"
        }
      ],
      "name": "products",
      "outputs": [
        {
          "internalType": "uint256",
          "name": "id",
          "type": "uint256"
        },
        {
          "internalType": "string",
          "name": "name",
          "type": "string"
        },
        {
          "internalType": "uint256",
          "name": "price",
          "type": "uint256"
        },
        {
          "internalType": "address payable",
          "name": "owner",
          "type": "address"
        },
        {
          "internalType": "bool",
          "name": "purchased",
          "type": "bool"
        },
        {
          "internalType": "bool",
          "name": "sale",
          "type": "bool"
        }
      ],
      "payable": false,
      "stateMutability": "view",
      "type": "function"
    },
    {
      "constant": false,
      "inputs": [
        {
          "internalType": "string",
          "name": "_name",
          "type": "string"
        },
        {
          "internalType": "uint256",
          "name": "_price",
          "type": "uint256"
        }
      ],
      "name": "createProduct",
      "outputs": [],
      "payable": false,
      "stateMutability": "nonpayable",
      "type": "function"
    },
    {
      "constant": false,
      "inputs": [
        {
          "internalType": "uint256",
          "name": "_id",
          "type": "uint256"
        }
      ],
      "name": "purchaseProduct",
      "outputs": [],
      "payable": true,
      "stateMutability": "payable",
      "type": "function"
    },
    {
      "constant": false,
      "inputs": [
        {
          "internalType": "uint256",
          "name": "_id",
          "type": "uint256"
        },
        {
          "internalType": "string",
          "name": "_name",
          "type": "string"
        },
        {
          "internalType": "uint256",
          "name": "_price",
          "type": "uint256"
        }
      ],
      "name": "changeProduct",
      "outputs": [],
      "payable": false,
      "stateMutability": "nonpayable",
      "type": "function"
    },
    {
      "constant": false,
      "inputs": [
        {
          "internalType": "uint256",
          "name": "_id",
          "type": "uint256"
        },
        {
          "internalType": "bool",
          "name": "_sale",
          "type": "bool"
        }
      ],
      "name": "forSale",
      "outputs": [],
      "payable": false,
      "stateMutability": "nonpayable",
      "type": "function"
    }
  ],
  "bytecode": "0x608060405260006001553480156200001657600080fd5b5060405162001cef38038062001cef833981810160405260208110156200003c57600080fd5b81019080805190602001909291905050506040518060400160405280601b81526020017f4461707020556e6976657273697479204d61726b6574706c6163650000000000815250600090805190602001906200009a929190620000e3565b5080600360006101000a81548173ffffffffffffffffffffffffffffffffffffffff021916908373ffffffffffffffffffffffffffffffffffffffff1602179055505062000192565b828054600181600116156101000203166002900490600052602060002090601f016020900481019282601f106200012657805160ff191683800117855562000157565b8280016001018555821562000157579182015b828111156200015657825182559160200191906001019062000139565b5b5090506200016691906200016a565b5090565b6200018f91905b808211156200018b57600081600090555060010162000171565b5090565b90565b611b4d80620001a26000396000f3fe6080604052600436106100705760003560e01c80637acc0b201161004e5780637acc0b201461020f5780639654423d1461031a578063e0f6ef8714610361578063e9300c6c1461038c57610070565b806306fdde031461007557806338e76a03146101055780635944a2e914610133575b600080fd5b34801561008157600080fd5b5061008a61045e565b6040518080602001828103825283818151815260200191508051906020019080838360005b838110156100ca5780820151818401526020810190506100af565b50505050905090810190601f1680156100f75780820380516001836020036101000a031916815260200191505b509250505060405180910390f35b6101316004803603602081101561011b57600080fd5b81019080803590602001909291905050506104fc565b005b34801561013f57600080fd5b5061020d6004803603606081101561015657600080fd5b81019080803590602001909291908035906020019064010000000081111561017d57600080fd5b82018360208201111561018f57600080fd5b803590602001918460018302840111640100000000831117156101b157600080fd5b91908080601f016020809104026020016040519081016040528093929190818152602001838380828437600081840152601f19601f82011690508083019250505050505050919291929080359060200190929190505050610b7d565b005b34801561021b57600080fd5b506102486004803603602081101561023257600080fd5b8101908080359060200190929190505050611130565b60405180878152602001806020018681526020018573ffffffffffffffffffffffffffffffffffffffff1673ffffffffffffffffffffffffffffffffffffffff1681526020018415151515815260200183151515158152602001828103825287818151815260200191508051906020019080838360005b838110156102da5780820151818401526020810190506102bf565b50505050905090810190601f1680156103075780820380516001836020036101000a031916815260200191505b5097505050505050505060405180910390f35b34801561032657600080fd5b5061035f6004803603604081101561033d57600080fd5b810190808035906020019092919080351515906020019092919050505061123e565b005b34801561036d57600080fd5b50610376611703565b6040518082815260200191505060405180910390f35b34801561039857600080fd5b5061045c600480360360408110156103af57600080fd5b81019080803590602001906401000000008111156103cc57600080fd5b8201836020820111156103de57600080fd5b8035906020019184600183028401116401000000008311171561040057600080fd5b91908080601f016020809104026020016040519081016040528093929190818152602001838380828437600081840152601f19601f82011690508083019250505050505050919291929080359060200190929190505050611709565b005b60008054600181600116156101000203166002900480601f0160208091040260200160405190810160405280929190818152602001828054600181600116156101000203166002900480156104f45780601f106104c9576101008083540402835291602001916104f4565b820191906000526020600020905b8154815290600101906020018083116104d757829003601f168201915b505050505081565b610504611a23565b600260008381526020019081526020016000206040518060c001604052908160008201548152602001600182018054600181600116156101000203166002900480601f0160208091040260200160405190810160405280929190818152602001828054600181600116156101000203166002900480156105c55780601f1061059a576101008083540402835291602001916105c5565b820191906000526020600020905b8154815290600101906020018083116105a857829003601f168201915b50505050508152602001600282015481526020016003820160009054906101000a900473ffffffffffffffffffffffffffffffffffffffff1673ffffffffffffffffffffffffffffffffffffffff1673ffffffffffffffffffffffffffffffffffffffff1681526020016003820160149054906101000a900460ff161515151581526020016003820160159054906101000a900460ff1615151515815250509050600081606001519050600082600001511180156106895750600154826000015111155b6106fb576040517f08c379a000000000000000000000000000000000000000000000000000000000815260040180806020018281038252600e8152602001807f456e7465722076616c696420696400000000000000000000000000000000000081525060200191505060405180910390fd5b8160400151341015610775576040517f08c379a000000000000000000000000000000000000000000000000000000000815260040180806020018281038252601b8152602001807f5472616e736665722074686520636f727265637420616d6f756e74000000000081525060200191505060405180910390fd5b8160800151156107ed576040517f08c379a000000000000000000000000000000000000000000000000000000000815260040180806020018281038252601a8152602001807f50726f6475637420686173206265656e2070757263686173656400000000000081525060200191505060405180910390fd5b8073ffffffffffffffffffffffffffffffffffffffff163373ffffffffffffffffffffffffffffffffffffffff16141561088f576040517f08c379a00000000000000000000000000000000000000000000000000000000081526004018080602001828103825260168152602001807f42757965722063616e6e6f742062652073656c6c65720000000000000000000081525060200191505060405180910390fd5b33826060019073ffffffffffffffffffffffffffffffffffffffff16908173ffffffffffffffffffffffffffffffffffffffff168152505060018260800190151590811515815250508160026000858152602001908152602001600020600082015181600001556020820151816001019080519060200190610912929190611a73565b506040820151816002015560608201518160030160006101000a81548173ffffffffffffffffffffffffffffffffffffffff021916908373ffffffffffffffffffffffffffffffffffffffff16021790555060808201518160030160146101000a81548160ff02191690831515021790555060a08201518160030160156101000a81548160ff0219169083151502179055509050508073ffffffffffffffffffffffffffffffffffffffff166108fc6064605f3402816109ce57fe5b049081150290604051600060405180830381858888f193505050501580156109fa573d6000803e3d6000fd5b50600360009054906101000a900473ffffffffffffffffffffffffffffffffffffffff1673ffffffffffffffffffffffffffffffffffffffff166108fc60646005340281610a4457fe5b049081150290604051600060405180830381858888f19350505050158015610a70573d6000803e3d6000fd5b507f30fe1766f4be498b4b6e89a857a816b991b86ede45bd1a0f89a34cebccbd796d600154836020015184604001513360018760a0015160405180878152602001806020018681526020018573ffffffffffffffffffffffffffffffffffffffff1673ffffffffffffffffffffffffffffffffffffffff1681526020018415151515815260200183151515158152602001828103825287818151815260200191508051906020019080838360005b83811015610b39578082015181840152602081019050610b1e565b50505050905090810190601f168015610b665780820380516001836020036101000a031916815260200191505b5097505050505050505060405180910390a1505050565b610b85611a23565b600260008581526020019081526020016000206040518060c001604052908160008201548152602001600182018054600181600116156101000203166002900480601f016020809104026020016040519081016040528092919081815260200182805460018160011615610100020316600290048015610c465780601f10610c1b57610100808354040283529160200191610c46565b820191906000526020600020905b815481529060010190602001808311610c2957829003601f168201915b50505050508152602001600282015481526020016003820160009054906101000a900473ffffffffffffffffffffffffffffffffffffffff1673ffffffffffffffffffffffffffffffffffffffff1673ffffffffffffffffffffffffffffffffffffffff1681526020016003820160149054906101000a900460ff161515151581526020016003820160159054906101000a900460ff161515151581525050905060008160000151118015610d015750600154816000015111155b610d73576040517f08c379a000000000000000000000000000000000000000000000000000000000815260040180806020018281038252600e8152602001807f456e7465722076616c696420696400000000000000000000000000000000000081525060200191505060405180910390fd5b806060015173ffffffffffffffffffffffffffffffffffffffff163373ffffffffffffffffffffffffffffffffffffffff1614610e18576040517f08c379a00000000000000000000000000000000000000000000000000000000081526004018080602001828103825260198152602001807f4973206e6f74206f776e6572207468652070726f64756374200000000000000081525060200191505060405180910390fd5b6000835111610e8f576040517f08c379a00000000000000000000000000000000000000000000000000000000081526004018080602001828103825260128152602001807f456e74657220612076616c6964206e616d65000000000000000000000000000081525060200191505060405180910390fd5b60008211610f05576040517f08c379a00000000000000000000000000000000000000000000000000000000081526004018080602001828103825260138152602001807f456e74657220612076616c69642070726963650000000000000000000000000081525060200191505060405180910390fd5b6040518060c00160405280858152602001848152602001838152602001826060015173ffffffffffffffffffffffffffffffffffffffff1681526020018260800151151581526020018260a00151151581525060026000868152602001908152602001600020600082015181600001556020820151816001019080519060200190610f91929190611a73565b506040820151816002015560608201518160030160006101000a81548173ffffffffffffffffffffffffffffffffffffffff021916908373ffffffffffffffffffffffffffffffffffffffff16021790555060808201518160030160146101000a81548160ff02191690831515021790555060a08201518160030160156101000a81548160ff0219169083151502179055509050507f318ab046d4e9c94165ec299e07a0f2f80e58f1964420fea263da98fa45aceace848484846060015185608001518660a0015160405180878152602001806020018681526020018573ffffffffffffffffffffffffffffffffffffffff1673ffffffffffffffffffffffffffffffffffffffff1681526020018415151515815260200183151515158152602001828103825287818151815260200191508051906020019080838360005b838110156110eb5780820151818401526020810190506110d0565b50505050905090810190601f1680156111185780820380516001836020036101000a031916815260200191505b5097505050505050505060405180910390a150505050565b6002602052806000526040600020600091509050806000015490806001018054600181600116156101000203166002900480601f0160208091040260200160405190810160405280929190818152602001828054600181600116156101000203166002900480156111e25780601f106111b7576101008083540402835291602001916111e2565b820191906000526020600020905b8154815290600101906020018083116111c557829003601f168201915b5050505050908060020154908060030160009054906101000a900473ffffffffffffffffffffffffffffffffffffffff16908060030160149054906101000a900460ff16908060030160159054906101000a900460ff16905086565b611246611a23565b600260008481526020019081526020016000206040518060c001604052908160008201548152602001600182018054600181600116156101000203166002900480601f0160208091040260200160405190810160405280929190818152602001828054600181600116156101000203166002900480156113075780601f106112dc57610100808354040283529160200191611307565b820191906000526020600020905b8154815290600101906020018083116112ea57829003601f168201915b50505050508152602001600282015481526020016003820160009054906101000a900473ffffffffffffffffffffffffffffffffffffffff1673ffffffffffffffffffffffffffffffffffffffff1673ffffffffffffffffffffffffffffffffffffffff1681526020016003820160149054906101000a900460ff161515151581526020016003820160159054906101000a900460ff1615151515815250509050600081600001511180156113c25750600154816000015111155b611434576040517f08c379a000000000000000000000000000000000000000000000000000000000815260040180806020018281038252600e8152602001807f456e7465722076616c696420696400000000000000000000000000000000000081525060200191505060405180910390fd5b806060015173ffffffffffffffffffffffffffffffffffffffff163373ffffffffffffffffffffffffffffffffffffffff16146114d9576040517f08c379a00000000000000000000000000000000000000000000000000000000081526004018080602001828103825260198152602001807f4973206e6f74206f776e6572207468652070726f64756374200000000000000081525060200191505060405180910390fd5b6040518060c001604052808481526020018260200151815260200182604001518152602001826060015173ffffffffffffffffffffffffffffffffffffffff168152602001831515815260200183151581525060026000858152602001908152602001600020600082015181600001556020820151816001019080519060200190611565929190611a73565b506040820151816002015560608201518160030160006101000a81548173ffffffffffffffffffffffffffffffffffffffff021916908373ffffffffffffffffffffffffffffffffffffffff16021790555060808201518160030160146101000a81548160ff02191690831515021790555060a08201518160030160156101000a81548160ff0219169083151502179055509050507f5aa7b422c4062ad8b4194e967070a49b957c2f9de219c22ca4021f5c0110f86283826020015183604001518460600151868760405180878152602001806020018681526020018573ffffffffffffffffffffffffffffffffffffffff1673ffffffffffffffffffffffffffffffffffffffff1681526020018415151515815260200183151515158152602001828103825287818151815260200191508051906020019080838360005b838110156116bf5780820151818401526020810190506116a4565b50505050905090810190601f1680156116ec5780820380516001836020036101000a031916815260200191505b5097505050505050505060405180910390a1505050565b60015481565b6000825111611780576040517f08c379a00000000000000000000000000000000000000000000000000000000081526004018080602001828103825260128152602001807f456e74657220612076616c6964206e616d65000000000000000000000000000081525060200191505060405180910390fd5b600081116117f6576040517f08c379a00000000000000000000000000000000000000000000000000000000081526004018080602001828103825260138152602001807f456e74657220612076616c69642070726963650000000000000000000000000081525060200191505060405180910390fd5b6001600081548092919060010191905055506040518060c0016040528060015481526020018381526020018281526020013373ffffffffffffffffffffffffffffffffffffffff1681526020016000151581526020016001151581525060026000600154815260200190815260200160002060008201518160000155602082015181600101908051906020019061188e929190611a73565b506040820151816002015560608201518160030160006101000a81548173ffffffffffffffffffffffffffffffffffffffff021916908373ffffffffffffffffffffffffffffffffffffffff16021790555060808201518160030160146101000a81548160ff02191690831515021790555060a08201518160030160156101000a81548160ff0219169083151502179055509050507fc7874741d6d69988c1782a4eb1fdeff8733853cb23ed70504ede1763de6fbd756001548383336000600160405180878152602001806020018681526020018573ffffffffffffffffffffffffffffffffffffffff1673ffffffffffffffffffffffffffffffffffffffff1681526020018415151515815260200183151515158152602001828103825287818151815260200191508051906020019080838360005b838110156119e05780820151818401526020810190506119c5565b50505050905090810190601f168015611a0d5780820380516001836020036101000a031916815260200191505b5097505050505050505060405180910390a15050565b6040518060c00160405280600081526020016060815260200160008152602001600073ffffffffffffffffffffffffffffffffffffffff1681526020016000151581526020016000151581525090565b828054600181600116156101000203166002900490600052602060002090601f016020900481019282601f10611ab457805160ff1916838001178555611ae2565b82800160010185558215611ae2579182015b82811115611ae1578251825591602001919060010190611ac6565b5b509050611aef9190611af3565b5090565b611b1591905b80821115611b11576000816000905550600101611af9565b5090565b9056fea265627a7a72315820924d0ab82aff136475eabcdb2fe6e4044fb163a6a6489556d2dfb4b2276ba0e164736f6c63430005100032",
  "source": "pragma solidity ^0.5.0;\r\n\r\ncontract Marketplace {\r\n  string public name;\r\n  uint public productCount=0;\r\n  mapping(uint => Product) public products;\r\n  address payable ownerContract;\r\n  \r\nstruct Product {\r\n  uint id;\r\n  string name;\r\n  uint price;\r\n  address payable owner;\r\n  bool purchased;\r\n  bool sale;\r\n}\r\n\r\nevent ProductCreated (\r\n  uint id,\r\n  string name,\r\n  uint price,\r\n  address payable owner,\r\n  bool purchased,\r\n  bool sale\r\n);\r\n\r\nevent ProductPurchased (\r\n  uint id,\r\n  string name,\r\n  uint price,\r\n  address payable owner,\r\n  bool purchased,\r\n  bool sale\r\n);\r\n\r\nevent ProductChanged (\r\n  uint id,                                                         \r\n  string name,                                                     \r\n  uint price,                                                      \r\n  address payable owner,                                           \r\n  bool purchased,                                                  \r\n  bool sale \r\n);\r\n\r\nevent ProductForSale (  \r\n  uint id,              \r\n  string name,          \r\n  uint price,           \r\n  address payable owner,\r\n  bool purchased,       \r\n  bool sale             \r\n);\r\n\r\n  constructor(address payable _ownerContract) public {\r\n    name = \"Dapp University Marketplace\";\r\n    ownerContract = _ownerContract;\r\n  }\r\n\r\n  function createProduct(string memory _name, uint _price) public {\r\n    //Require a name\r\n    require(bytes(_name).length > 0, \"Enter a valid name\");\r\n    //Requiere a valid price\r\n    require(_price > 0, \"Enter a valid price\");\r\n    //Increment product count\r\n    productCount++;\r\n    //Create the product\r\n    products[productCount] = Product(productCount, _name, _price, msg.sender, false, true);\r\n    //Trigger an event\r\n    emit ProductCreated(productCount, _name, _price, msg.sender, false, true);\r\n  }\r\n\r\n  function purchaseProduct(uint _id) public payable {\r\n    //Fetch the product and make a copy of it\r\n    Product memory _product = products[_id];\r\n    //Fetch the owner\r\n    address payable _seller = _product.owner;\r\n    //Make sure the product has valid id\r\n    require(_product.id > 0 && _product.id <= productCount, \"Enter valid id\");\r\n    //Require that there is enough Ether in the transaction\r\n    require(msg.value >= _product.price,\"Transfer the correct amount\");\r\n    //Require that the product has not been purchased already\r\n    require(!_product.purchased, \"Product has been purchased\");\r\n    //Require that the buyer is not the seller\r\n    require(msg.sender != _seller, \"Buyer cannot be seller\");    \r\n    //Transfer ownership to the buyer\r\n    _product.owner = msg.sender;\r\n    //Mark as purchased\r\n    _product.purchased = true;\r\n    //Update the product\r\n    products[_id] = _product;\r\n    //Pay the seller by sending them Ether\r\n    address(_seller).transfer(msg.value * 95/100);\r\n    //Pay 5% for owner \r\n    address(ownerContract).transfer(msg.value * 5/100);\r\n    //Trigger an event\r\n    emit ProductPurchased(productCount, _product.name, _product.price, msg.sender, true, _product.sale);\r\n  }\r\n\r\n function changeProduct(uint _id, string memory _name, uint _price) public {\r\n   //Fetch the product and make a copy of it                                              \r\n   Product memory _product = products[_id];  \r\n   //Make sure the product has valid id                                                   \r\n   require(_product.id > 0 && _product.id <= productCount, \"Enter valid id\");\r\n   //Require owner product\r\n   require(msg.sender == _product.owner, \"Is not owner the product \");  \r\n   //Require a name                                                                       \r\n   require(bytes(_name).length > 0, \"Enter a valid name\");                                \r\n   //Requiere a valid price                                                               \r\n   require(_price > 0, \"Enter a valid price\");          \r\n   //Change the product\r\n   products[_id] = Product(_id, _name, _price, _product.owner, _product.purchased, _product.sale);\r\n   //Trigger an event                                                                     \r\n   emit ProductChanged(_id, _name, _price, _product.owner, _product.purchased, _product.sale);             \r\n }    \r\n\r\n function forSale(uint _id, bool _sale) public {\r\n   //Fetch the product and make a copy of it                                                            \r\n   Product memory _product = products[_id];                                                             \r\n   //Make sure the product has valid id                                                                 \r\n   require(_product.id > 0 && _product.id <= productCount, \"Enter valid id\"); \r\n   //Require owner product                                                                              \r\n   require(msg.sender == _product.owner, \"Is not owner the product \");   \r\n   //Change the product                                                                                 \r\n   products[_id] = Product(_id, _product.name, _product.price, _product.owner, _sale, _sale);      \r\n   //Trigger an event                                                                       \r\n   emit ProductForSale(_id, _product.name, _product.price, _product.owner, _sale, _sale);             \r\n }\r\n}",
  "sourcePath": "D:\\Projetos\\pucmg-bcsc-01\\src\\contracts\\Marketplace.sol",
  "compiler": {
    "name": "solc",
    "version": "0.5.16+commit.9c3226ce.Emscripten.clang"
  },
  "schemaVersion": "3.4.4",
  "updatedAt": "2021-12-23T01:38:38.332Z",
  "devdoc": {
    "methods": {}
  },
  "userdoc": {
    "methods": {}
  }
}